:1000000000100020ED0D00000D3700000D3700003E
:100010000D3700000D3700000D3700000D370000D0
:100020000D3700000D3700000D3700000D370000C0
:100030000D3700000D3700000D3700000D370000B0
:100040000D3700000D370000F10200000D370000F1
:100050000D3700000D3700000D3700000D37000090
:100060000D3700000D3700000D3700000D37000080
:100070000D3700000D3700000D3700000D37000070
:100080000D3700000D3700000D3700000D37000060
:10009000DD0300000D0400000D3700000D370000E7
:1000A0000D3700000D3700000D3700000D37000040
:1000B0000D3700000D3700000D3700000D37000030
:1000C0000D3700000D3700000D3700000D37000020
:1000D0000D3700000D3700000D3700000348044BBA
:1000E000834202D0034B03B11847704788100020A9
:1000F00088100020000000000548064B1B1AD90F8D
:1001000001EBA301491002D0034B03B1184770471C
:1001100088100020881000200000000010B5064C58
:10012000237843B9FFF7DAFF044B13B10448AFF368
:1001300000800123237010BD101200200000000079
:100140004040000008B5054B1BB105490548AFF319
:100150000080BDE80840FFF7CFBF00BF00000000EF
:100160008810002040400000A3F5803A704700BF8F
:10017000174B002B08BF134B9D46FFF7F5FF0021DF
:100180008B460F461348144A121A03F00EFB0E4B0F
:10019000002B00D098470D4B002B00D09847002033
:1001A000002104000D000D48002802D00C48AFF3D8
:1001B000008002F0B5FD2000290003F091FA02F062
:1001C000ABFC00BF000008000000000000000000C1
:1001D00000100020881000200815002000000000FA
:1001E00000000000024A0260024A4260704700BFFD
:1001F000883A000000C4004008B50121064801F01B
:1002000069F90121054801F065F9BDE808400121BF
:10021000034801F05FB900BF4081040000D2040030
:100220000012040010B5436804461A681C4842F0E6
:1002300001021A601A6842F480621A6001F05CFAE6
:10024000184A6368B0FBF2F2013A12025A611A6866
:1002500042F480721A601A6842F400721A601A68D6
:1002600042F480521A604FF480725A655A6D42F01F
:1002700008025A655A6D42F002025A655A6D42F000
:1002800001025A65DA6842F01002DA60DA6842F078
:100290000402DA60DA6842F00102DA6010BD00BFE1
:1002A0000012040080841E00F8B508271546044695
:1002B000054EC6F8807003F0B1F92946204603F0D8
:1002C000ADF9F767F8BD00BF0060004070B50826C3
:1002D0000446064D41F08001C5F8806003F09EF9A8
:1002E0000021204603F09AF9EE6770BD00600040DF
:1002F000034B9A6942F001029A6101221A60704729
:1003000000000140064A074902604FF6FF72C0E94B
:1003100001124FF48062C26000220274704700BF75
:10032000983A00000000014010B50446012107483A
:1003300001F0D0F86268136823F0706343F0206323
:100340001360136843F04003136010BD00520400B3
:10035000F8B504461F480E4601F0CEF90546304672
:1003600002F082FB01F0C8FF00221B4B02F046F9AD
:10037000064628460F4602F077FB01F0BDFF024615
:100380000B463046394602F00FF80646E0680F4645
:1003900002F06AFB01F0B0FF02460B4630463946D8
:1003A00002F02CF902F03AFAA3680022984228BF22
:1003B000184663685A62D8615A6842F001025A606E
:1003C0001A69D207FCD502225A609A6942F00102EA
:1003D0009A61F8BD0052040000408F4010B50848F3
:1003E000084A0168D3694C1C04600748DBB24354D7
:1003F0000A2B02BFD36C43F00203D36410BD00BFCD
:10040000A810002000E0004013130020F0B51C4CA1
:1004100023695B060AD51B491B480B680268934297
:1004200005DA5A1C0A60194AD35C6363F0BD184DA3
:100430002B78DBB1174E3368002B17DD164A013BD2
:10044000177867630024A3420BDC3360002BEDD1E7
:100450000B4C2B70E26C22F00202E2640B60036032
:10046000E4E75778013402F8017BECE70A22044BF9
:100470005A63DA6C22F00202DA640023EEE700BF6E
:1004800000E00040A4100020A8100020131300205A
:1004900012120020A01000201312002030B587B0E7
:1004A0000121464801F016F80121454801F012F8F3
:1004B0000122444B1A6401F06BFC0446684601F0CB
:1004C0003FFC0F2C12D99DF80030022B0ED99DF85D
:1004D0000120022A01D1042B08D03B4AD2F8C030B7
:1004E00023F0500343F01003C2F8C0306C460020E4
:1004F00000F07AFB354800F0CDFB01212F4800F0D9
:10050000E9FF334D0121334800F0E4FF0121324877
:1005100000F0E0FF0FCD0FC495E8030084E803006E
:100520002E4C6946204601F0F5FC40F203132C4A9C
:100530006365D2F89C30072143F00103C2F89C3078
:10054000D2F89430052023F47F6323F00F0343F4A3
:10055000826343F00403C2F894300123042201F0C3
:10056000A7FB012309211A46184601F0A1FBE36C01
:1005700043F00403E364236823F4805323604FF4BF
:100580008012184B1A604FF400121A600023164AAA
:1005900016481360164A174C1360174A1370FFF77A
:1005A000C3FE164803F053F8144803F05FF818B977
:1005B000204600F06FFBFBE707B030BD4081040030
:1005C00000362C0000000C4000800C40A03A0000D7
:1005D000C03A00000032040000D2040000E00040F5
:1005E0000060004000E100E0A8100020AC100020F6
:1005F000A4100020A43A000012120020C010002015
:100600007FB52E4B2E4D1B6C2E4C03F40073002B2C
:1006100014BF012600260AD12B7843B1237883F03A
:1006200001032370002B47D0274800F033FB2378C9
:100630002E70002B39D0254803F021F804462348BA
:1006400003F02BF80546214803F035F8064605FB74
:1006500005F004FB040006FB060001F03BFE02F07F
:1006600001FE02F0B3F801F035FE0022184B01F054
:100670009BFE02F0F3F801F03FFE2346CDE90201B4
:10068000144A4FF48071CDE90056134802F0F8FA8D
:100690000122124B1860124B1A70124BDA6C92073F
:1006A0005EBFDA6C42F00202DA6432210E4804B016
:1006B000BDE87040FFF74CBE0C48B6E70060004054
:1006C0007810002011120020A93A0000C01000206C
:1006D0000000703FB03A000013120020A01000206C
:1006E0001212002000E00040AC100020A03A0000F0
:1006F00038B50A4C0A4D2046FFF774FD2046094CD8
:100700002A46094903F04AF82046FFF7FBFD2A462E
:100710002046BDE83840054903F040B8C01000202D
:1007200010100020AC100020D9350000D336000096
:1007300070B51F2905460C46164603D99121064877
:1007400002F0EBFF05F1424000F5801004EBC0041D
:10075000A400266070BD00BFD83A000070B5114DEE
:1007600004466E6818B946210F4802F0D6FF2B6880
:10077000E26823F001032B606368134326F48302CD
:1007800022F01F021343227A1343627A1A43238A08
:1007900013436B6023781BB12B6843F001032B607C
:1007A00070BD00BF00A00840273B0000054AB0F51F
:1007B000803F536823F4803308BF43F48033536091
:1007C000704700BF00A00840044B9A6811B1024373
:1007D0009A60704722EA0002FAE700BF00A00840D2
:1007E00037B5072805460C4613DD40F22721374868
:1007F00002F093FF272C04DD40F22E21334802F053
:100800008CFF4FF42671314803B0BDE8304002F050
:1008100084BF27290EDD40F22E212C48019202F0E0
:100820007CFF019A072DECD8DFE805F0141C242C7E
:10083000343C444C0728E4D8DFE800F004101820CA
:10084000283038401F2905DC214803B0BDE830407E
:10085000FFF76EBF1F48A4F12001F6E71F2901DC56
:100860001D48F2E71D48A4F12001EEE71F2901DC35
:100870001B48EAE71B48A4F12001E6E71F2901DC39
:100880001948E2E71948A4F12001DEE71F2901DC3D
:100890001748DAE71748A4F12001D6E71F2901DC41
:1008A0001548D2E71548A4F12001CEE71F2901DC45
:1008B0001348CAE71348A4F12001C6E71F2901DC49
:1008C0001148C2E71148A4F12001BEE7273B000010
:1008D00040A0084050A0084044A0084054A0084050
:1008E00048A0084058A008404CA008405CA0084020
:1008F000CCA00840B4A00840D0A00840B8A0084050
:10090000D4A00840BCA00840D8A00840C0A008401F
:1009100008B507280BDD40F20331294802F0FDFE3F
:10092000BDE8084040F24331254802F0F6BE0728F2
:10093000F6D8DFE800F0040B12192029323B214BD6
:10094000186C42400A4042401A6408BD1D4B586C66
:1009500042400A4042405A64F7E71A4B986C4240C2
:100960000A4042409A64F0E7164BD86C42400A4075
:100970004240DA64E9E7134BD3F8CC0042400A4026
:100980004240C3F8CC20E0E70E4BD3F8D000424001
:100990000A404240C3F8D020D7E70A4BD3F8D4002E
:1009A00042400A404240C3F8D420CEE7054BD3F87A
:1009B000D80042400A404240C3F8D820C5E700BFF3
:1009C000273B000000A00840072804DD4FF45771C2
:1009D000254802F0A2BE072844D8DFE800F0040B47
:1009E00012192029323B214B186D42400A404240E7
:1009F0001A6570471D4B586D42400A4042405A6587
:100A000070471A4B986D42400A4042409A657047C1
:100A1000164BD86D42400A404240DA657047134B8E
:100A2000D3F8B40042400A404240C3F8B4207047B3
:100A30000E4BD3F8B80042400A404240C3F8B820F9
:100A400070470A4BD3F8BC0042400A404240C3F80A
:100A5000BC207047054BD3F8C00042400A404240DA
:100A6000C3F8C020704700BF273B000000A008402B
:100A7000034A536823F4E01303435360704700BFF5
:100A800000A00840024A536E0342FCD1704700BFE9
:100A900000A0084010B50022284C10462146FFF760
:100AA00037FF214600220120FFF732FF21460022B6
:100AB0000220FFF72DFF214600220320FFF728FF29
:100AC000214600220420FFF723FF214600220520B3
:100AD000FFF71EFF214600220620FFF719FF2146DF
:100AE00000220720FFF714FF0022FF211046FFF726
:100AF0006BFF0022FF210120FFF766FF0022FF218C
:100B00000220FFF761FF0022FF210320FFF75CFFB7
:100B10000022FF210420FFF757FF0022FF210520BC
:100B2000FFF752FF0022FF210620FFF74DFFBDE82F
:100B300010400022FF210720FFF746BF00F00FF012
:100B400010B5274C002207202649FFF7E1FE214679
:100B500000220620FFF7DCFE214600220520FFF7D9
:100B6000D7FE214600220420FFF7D2FE21460022B4
:100B70000320FFF7CDFE214600220220FFF7C8FE2A
:100B8000214600220120FFF7C3FE00224FF0204142
:100B90001046FFF7BDFE072100220846FFF714FFAD
:100BA000002207210620FFF70FFF00220721052062
:100BB000FFF70AFF002207210420FFF705FF0022AC
:100BC00007210320FFF700FF002207210220FFF783
:100BD000FBFEBDE81040002207210120FFF7F4BE14
:100BE00000E00FF000E00F5010B50121044622484C
:100BF00000F070FC0321214800F026FF402120482E
:100C000000F04CFB012000F067FE01211D4800F0C0
:100C100061FC1D4B1D489A6A00229A62FFF79EFDF7
:100C200001210820FFF7D0FD01211020FFF7CCFDA6
:100C300001218020FFF7C8FD01214FF48070FFF7EC
:100C4000C3FD01214FF40070FFF7BEFD64B14FF406
:100C50004020FFF70DFF4FF48030FFF7A7FD0C4A4F
:100C6000D36F43F00803D367FFF714FFBDE81040CC
:100C70004FF0FF30FFF706BFD0433E0002001E00DA
:100C800080002A0000362C0000A00840343B000001
:100C900000800C402DE9F84F814602F090FD80461F
:100CA0004FF0FF30FFF7EEFE0122164B00241A66CC
:100CB000FFF746FF144FDFF854A0A045D8BF20230C
:100CC0003E464FF00005C8BF19F80430203B3AF803
:100CD00013B04BFA05F3DB0704D50122B17B307862
:100CE000FFF77EFD01350E2D06F10106F1D101342D
:100CF000072C07F11C07E0D10022024B1A66BDE861
:100D0000F88F00BF00A00840003C0000483B0000F6
:100D100010B500F06BFE01210F4800F0DBFB012253
:100D20000020114600F036FE01220C4C1146A36A49
:100D3000002023F4803323F0030343F00203A36273
:100D400000F028FEA36A002023F4801323F00C0394
:100D500043F00803A36210BDD0433E0000800C4066
:100D600013B50122164B1A6401F012F8044601A8CB
:100D700000F0E6FF0F2C12D99DF80430022B0ED99B
:100D80009DF80520022A01D1042B08D00D4AD2F883
:100D9000C03023F0500343F01003C2F8C03001F01C
:100DA00029F900F01DF802F0D0FC01F00DF9FFF771
:100DB000AFFF01F0F9F802B0BDE8104000F004B850
:100DC00000000C4000800C4008B50121034800F0F1
:100DD00081FBBDE8084002F08DBC00BF00D20400DA
:100DE0000121014800F076BB00D2040008B500F0F4
:100DF000B9F8124B12498B4212D30020114B124901
:100E00008B4218D3FFF7B4F9186850F8224058689D
:100E100040F82240013298688242F5D30C33EAE769
:100E20000022F8E71C6844F8220001325C68A24204
:100E3000F8D30833E4E70022F8E700BF4840000099
:100E400054400000544000005440000000487047E7
:100E5000006CDC02254AD36A03F47053B3F5805F5B
:100E60003AD0B3F5005F04D0B3F5006F0BD1204B3F
:100E700000E0204B1B681D4A1068C0F3823001302F
:100E8000B3FBF0F07047D36803F4E063B3F5407F41
:100E900025D008D8B3F5807F0ED0B3F5007F20D0E1
:100EA000A3B10023E7E7B3F5806F1CD0B3F5A06FC3
:100EB000114B18BF0023DEE7104B114AD3F8FC108A
:100EC000104BB1F1985F28BF1346D4E70B4B0E4A85
:100ED000D3F8FC100D4BF4E74FF40043CBE70C4B79
:100EE000C9E70C4BC7E70C4BC5E700BF00800C40BF
:100EF0001C10002018100020003FAB010081E00F03
:100F000040B56400C0CF6A00804F120040420F001D
:100F1000809FD500C0D8A700406F400108B5FFF7FB
:100F200099FF044B5B6803F00F03D840024B186035
:100F300008BD00BF00800C4014100020014B186851
:100F4000704700BF1C100020044B1860044BDB6A84
:100F50001B0501D5FFF7E2BF704700BF1C10002042
:100F600000800C40014A024B9A607047000000006C
:100F700000ED00E0014B1868704700BF181000201A
:100F80000346054A0549106803448B428CBF4FF065
:100F9000FF301360704700BF2010002000000220C7
:100FA00010B5431EB3F5004F044604D2B4FA84F0E2
:100FB000C0F11F0010BD40F69351034802F0ADFB95
:100FC000002CF3D12020F3E7FE3D000008B5194BBB
:100FD0005B6903F4E063B3F5407F16D00DD8B3F539
:100FE000807F20D0B3F5007F18D0F3B141F29C612F
:100FF000114802F092FB00230EE0B3F5C06F16D04B
:10100000B3F5E06FF2D10D4B06E000F0C1FE0C4BE2
:101010000C4A122888BF1346184608BD00F0B8FED7
:10102000094B0A4AF5E70A4BF6E70A4BF4E70A4B85
:10103000F2E700BF00800C404D3E0000406F4001D1
:1010400040420F00804F1200C0CF6A0040B56400DC
:10105000C0D8A700809FD500003FAB01034B5A6D5D
:10106000D20702D41A6D1042FCD1704700800C40A8
:1010700008B500F095FE4A2805D0792803D0482805
:1010800018D1104815E010490E48D1F8E030D1F8D9
:10109000E820D1F8EC101B0203F47C53C1F30311D8
:1010A00002F0F0020B431343084AB3F5017F28BF57
:1010B000104608BD064841F2186102F02EFB0020E0
:1010C000F7E700BF0048E80100FF0FE000366E01BF
:1010D0004D3E000010B50446FFF7CAFFA04207D2FC
:1010E000FFF7C6FFB4EB400F0ED80122012301E049
:1010F0000022134605498B6705494B6823F480732A
:1011000043EA02234B6010BD0222EFE70000904348
:1011100000800C40144B5A686FF0130302F0070272
:10112000134113F0010F114B09D1984217D8104BFE
:10113000104A034493422CBF0023012308E0984245
:101140000FD80B4B0B4A0344934234BF03230223B3
:1011500005494A6822F0070213434B607047042395
:10116000F6E70523F4E700BF00000C400048E80163
:10117000FFDB0BFF0024F40038B541F67133064C59
:10118000E56BE363FFF762FEADB2FFF7C3FF0DB19E
:101190000023E36338BD00BF00000C4038B541F6C2
:1011A0007133054CE56BE363ADB2FFF7B3FF0DB1EF
:1011B0000023E36338BD00BF00000C4008B5C0F356
:1011C0000313013B0C2B5AD8DFE803F00759590DE4
:1011D0005959141D4759595917002A4B1868C0F31B
:1011E0008230013008BD274B9B6803F00F030120BC
:1011F0009840F7E7234B5B68F7E7224B5B68C3F344
:1012000000230133F3E7204B984220D00DD81F4B29
:10121000984212D003F58223984213D041F62F4111
:101220001B4802F07AFA0120DCE71A4B9842F5D10C
:10123000144B9B6E03F00303D9E7124B9B6EC3F371
:101240000313D4E70F4B9B6EC3F30323CFE70D4B80
:101250009B6EC3F301330433C9E70F4B984206D0AA
:1012600003F50433984205D041F64841D8E7054BD1
:101270001B6FDFE7034B1B6FC3F30113B7E741F6A7
:101280004F41CDE700800C4080002A0080161200FC
:101290004D3E000080062E0090071A0010B5C0F3E6
:1012A0000313013B0C460C2B00F20581DFE813F021
:1012B0000D00030103012500030103014400670041
:1012C000D10003010301030138004C1E072C04D98F
:1012D00041F67C41794802F020FAFFF74DFF784A49
:1012E000136823F4E03343EA84341460FFF716FEF6
:1012F000BDE810400021FFF751BF4B1EB3F5007F42
:1013000004D341F68F416D4802F007FA2046FFF7FB
:1013100047FE6B4A936823F00F030343936010BDAD
:101320000846FFF73DFE664A0138536823F4807390
:1013300043EA00235360F2E74B1EB3F5007F04D36A
:1013400041F6A5415D4802F0E8F9FFF715FFFFF708
:10135000E5FDB0FBF4F0FFF7BDFE2046FFF720FEF1
:10136000574A536823F00F0303435360FFF7D6FD3A
:101370000021FFF713FFBDE81040FFF7ABBE514B54
:1013800098424FD00DD8504B984220D003F582237D
:10139000984232D041F6FE41BDE81040474802F085
:1013A000BCB94A4B9842F5D1082904D941F6F0411D
:1013B000424802F0B2F90420FFF750FE2046FFF742
:1013C000EFFD3F4A936E23F00303034313E0B1F5AF
:1013D000004F04D941F6C341384802F09EF9042079
:1013E000FFF73CFE2046FFF7DBFD354A936E23F006
:1013F000F00343EA0013936691E7B1F5004F04D977
:1014000041F6D1412D4802F088F90420FFF726FE6D
:101410002046FFF7C5FD2A4A936E23F4706343EA22
:101420000023E8E7A1F11003702B04D94FF4E75132
:10143000224802F072F90420FFF710FE2046FFF761
:10144000AFFD1F4A0438936E23F4405343EA003340
:10145000D1E71F4B984206D003F50433984216D0CB
:1014600041F6245198E7082904D941F60751134859
:1014700002F053F94020FFF7F1FD2046FFF790FD01
:101480000F4A136F23F003030343136747E7082949
:1014900004D941F61651094802F03FF94020FFF700
:1014A000DDFD2046FFF77CFD054A136F23F0300376
:1014B00043EA0013E9E741F62A516DE74D3E00008B
:1014C00000800C4080002A008016120080062E004A
:1014D00090071A0070B5C0F30323013B04460E4683
:1014E000092B16D8DFE803F0302C05151527201539
:1014F000151CFFF713FDFFF7EDFD154DC4F3043484
:1015000005F1424505F5801504EBC504A4002660ED
:1015100070BD41F6B051BDE870400E4802F0FDB814
:101520000D4DC0F30434EBE7C0F3043410200B4D31
:10153000FFF794FDE4E7C0F30434094D0120F7E719
:10154000084DC0F30434DBE7074DC0F30434D7E79C
:1015500040800C404D3E000078800C4060800C4084
:1015600058800C4044800C4008800C4008B500F0C6
:101570000F00013806284CD8DFE800F00414254B92
:101580004B333B00294BDB6A03F47053B3F5805FA8
:101590004AD0B3F5005F45D0B3F5006F0CBF04200F
:1015A000052008BD214B986A00F003000228F8D0FE
:1015B000032835D0012837D09B6A13F4803F0CBF35
:1015C00001200A20EDE7194A936A03F00C03082B67
:1015D00028D00C2B24D0042B26D0936A13F4801F20
:1015E000EDE7124B1B6813F0805F0CBF072009204A
:1015F000D7E70E4BDB6A03F46033B3F5803F11D0BD
:10160000B3F5003F10D0B3F5004F0CBF0920012007
:10161000C7E7074842F2013102F07FF80020C0E737
:101620000620BEE70220BCE70320BAE700800C409A
:101630004D3E000010B52B4B0446984223D02A4B58
:10164000984213D041F61311284802F066F820465C
:10165000FFF78CFF044641F64211244802F05DF882
:10166000032C37D8DFE804F03B1C2024FFF77EFF73
:101670001F4A936AC3F38103013B022B27D8DFE89B
:1016800003F00F131700FFF771FF194A936A03F075
:101690000303013B022B12D8DFE803F002060A0025
:1016A000BDE8104002F033B8BDE81040FFF762BC5F
:1016B000FFF734FC0F4B9B6F0133D84010BD936A8A
:1016C0001022D3400BD0BDE8104002F023B8936A3B
:1016D0001422F6E741F66D11044802F01EF80020CE
:1016E000ECE700BF02001E00030020004D3E00009A
:1016F00000800C400000904338B500F47813B3F537
:10170000E01F054600F087802ED8B3F5801F00F05B
:10171000918018D8B3F5802F50D006D87BB1B3F59F
:10172000003F53D04FF4F7517FE0B3F5602FF9D16C
:101730005048FFF71BFF07287CD0092873D1BDE86C
:101740003840FFF787BBB3F5B01F43D0B3F5D01FC8
:101750005BD0B3F5901FE5D14748FFF76BFF474BD0
:101760009B6EC3F303132FE0B3F5281F3AD00DD8B7
:10177000B3F5001F47D0B3F5181F5FD0B3F5F01FC6
:10178000D0D13D48BDE83840FFF754BFB3F5381F0E
:1017900031D0B3F5781F63D0B3F5301FC2D13648CE
:1017A000FFF748FF354A936EC3F30133D840D36F38
:1017B00003F007030133B0FBF3F038BDFFF74AFB3A
:1017C0002E4B9B6803F00F03D840F6E7BDE8384086
:1017D000FFF7A4BB2848FFF72DFF284B9B6EC3F3F0
:1017E0000323F1E72448FFF725FF244B9B6EC3F347
:1017F00001330433E8E72048FFF71CFF1F4B9B6EC3
:1018000003F00303E0E71E48BCE71D48FFF712FFA3
:101810001A4B1B6FF4E71A48FFF70CFF174B1B6FAF
:10182000C3F30113D0E741F2D661164801F075FF0A
:101830000020C2E7BDE83840FFF7C8BB1248FFF7F9
:1018400095FE032808D009283FF479AF0228EFD18C
:10185000BDE83840FFF78EBBBDE8384001F057BF08
:10186000FFF75CFB04462846FFF7A8FCB4FBF0F04A
:10187000A3E700BF06000E0002001E0000800C401F
:10188000030020004D3E00000723260010B504464B
:101890001120FFF76BFE042804D142F673210C4897
:1018A00001F03BFF08230B4A13621368E17823F42D
:1018B000D16323F007030B43617843EA4123217886
:1018C00043EA8103A17843EAC113136010BD00BF4E
:1018D0004D3E000000800C4010B58028044604D91D
:1018E00042F60D31074801F018FF074A936D1B07B8
:1018F00006D4D36F04F0070423F007032343D36710
:1019000010BD00BF4D3E000000800C4070B5054684
:101910001120FFF72BFE022804D142F62B31144888
:1019200001F0FBFE4FF40073124E3362AC786B781B
:10193000E40244EA83442B78C3F3400344EA43348B
:1019400001F0EDFE33685C4024F07F4424F473041E
:1019500024F4474424F0FF045C40346001F0E3FECB
:101960002B78054A03F00103C2F8A03470BD00BF14
:101970004D3E000000800C4000008C43014B18805D
:10198000704700BF76100020014B1880704700BFE1
:101990007410002030B404280BD80E4B1C5C0E4B86
:1019A00033F810500D4B33F810000D4B39B9186255
:1019B0000DE042F6F93130BC0A4801F0AEBE1D62BE
:1019C0002AB1094B23449B001A68002AFCD030BC82
:1019D000704700BFB03E0000A63E00009C3E0000E5
:1019E00000800C404D3E00006001E41008B5FFF798
:1019F0003FFB0130FFF76EFBFFF7A0FA104A114BD7
:101A0000984213684FF0020096BF23F0600343F042
:101A1000600343F02003136001221146FFF7BAFF71
:101A2000FFF7AAFB0222064B5A62FFF777FAFFF78D
:101A300051FBFFF773FABDE808400021FFF7AEBB8A
:101A400000800C400048E80110B500F00F04631E50
:101A5000062B00F2CD80DFE803F0044E4ECBCB9195
:101A6000A300023908293DD8DFE801F03F42052EE6
:101A70003C3C3C3C3500FFF7FBFA0130FFF72AFB0A
:101A8000FFF75CFA5C4B5D4A9842136817D943F044
:101A9000600302200446136001221146FFF77AFF1B
:101AA000FFF76AFB554B5C62FFF738FA0446FFF715
:101AB00011FB2046BDE810400021FFF76FBB23F06B
:101AC000600343F02003E4E7FFF7D2FA0130FFF7A9
:101AD00001FB0320E0E742F22F51BDE810404848E7
:101AE00001F01BBE42F23451F7E700200424D3E793
:101AF00001200324D0E7013909292DD8DFE801F0BE
:101B00002F05192C2C212C2C2C32012200201146BF
:101B1000FFF740FF002302213848022C826A23D1BC
:101B200022F4803222F003020A4342EA0342826234
:101B300010BD012211461046FFF72CFF00230121A2
:101B4000EAE7FFF7EBF9FFF7C5FA01222D4B032176
:101B5000C3F810280023DFE742F2DD51BDE7002380
:101B60000021D9E70123FBE71B0522F4801243EA99
:101B7000810322F00C0213438362D9E7072904D0C2
:101B8000092908D042F23861A7E71C4A136823F0FC
:101B900080531360CCE7194A136843F08053F8E789
:101BA00003290FD0092919D002291ED101220020B2
:101BB0001146FFF7EFFE4022104B5A62DA6AD0035B
:101BC000FCD5B5E7012211461046FFF7E3FE60227F
:101BD0000A4B5A62DA6A9103FCD5A9E72022074B27
:101BE0005A62DA6A1204FCD5A2E742F2776174E71E
:101BF00042F26D7171E700BF0048E80100800C40BF
:101C00004D3E00000000904310B5047983780949E7
:101C100023430478CA6A43EA0443C478407822F430
:101C2000803243EA440322F01F0243EA00131343C5
:101C3000CB6210BD00600C4038B5052804460D4647
:101C400005D80A4B33F81030CB40DB0704D44FF4EF
:101C50008661074801F061FD24220123544304F109
:101C60008044AB4004F5C044236138BD543F0000BC
:101C7000B53E000038B5052804460D4605D80A4B88
:101C800033F81030CB40DB0704D440F20141074861
:101C900001F043FD24220123544304F18044AB406E
:101CA00004F5C044636138BD543F0000B53E0000F8
:101CB000F8B5052805460C4616461F4605D81C4BA8
:101CC00033F81030CB40DB0704D44FF4B07119481F
:101CD00001F023FD26B121462846C7B1FFF7ACFF2E
:101CE0002423072C4FF00F0105FB03F312D8A000AB
:101CF00006FA00F281401048184401F017FDAEB911
:101D00002146284677B1BDE8F840FFF795BFFFF7B9
:101D1000B1FFE5E7A4F10800800006FA00F2814077
:101D20000648E9E7BDE8F840FFF7A4BFF8BD00BFEB
:101D3000543F0000053F0000046000400860004080
:101D400010B5044618B957210F4801F0E6FC0F4AB8
:101D5000D2F8E430D2F8E0109B0003F03C03C1F36A
:101D600081110B43A370D2F8E03003F03F0363709E
:101D7000D2F8E830D2F8EC2003F0F003C2F30312FB
:101D80001343237010BD00BF603F000000FF0FE051
:101D9000024BD3F8FC00000E704700BF0081E00F3B
:101DA000024BD3F8FC00C0F3074070470081E00FFE
:101DB000F8B507460C461D4616464AB940F255117D
:101DC000314801F0AAFC24B1402D08D1062327E0B8
:101DD00019B92E48FFF790FC0446402D42D0402D03
:101DE00009D87DB1202D17D04FF4CE71BDE8F84051
:101DF000254801F092BC602DF6D1B6EB940F3CD88B
:101E000004230DE0B6EB141F04D940F287111E48DD
:101E100001F083FC102303E0B6EBD40F1CD8082399
:101E20005E43730803EB8403B3FBF6F3184E043BE5
:101E3000B6EB831F4FEA831404D240F2B311124869
:101E400001F06BFC3B68344023F060033B603B686F
:101E50001D433D607C61F8BD4FF4C6710A4801F036
:101E60005CFCDCE70623B4FBF3F3B342AED240F2F2
:101E70009111054801F051FCA8E74FF4CB710248DD
:101E800001F04BFCBCE700BFB13F00004081040003
:101E9000C0FF1F0010B51C4B0446984214D003F538
:101EA0008063984210D003F5806398420CD003F50C
:101EB000C053984208D003F58063984204D040F2A2
:101EC0005E41124801F029FC40F6AA6341F2050286
:101ED000E36000232360626041F6F972A3606361EE
:101EE000E364A264084A6365944202D12365A36552
:101EF00010BDA365064B9C4203D003F580639C4252
:101F0000F6D10023E365F3E700C00040B13F0000D5
:101F100000C4004038B5224B044698420D4614D008
:101F200003F58063984210D003F5806398420CD08B
:101F300003F5C053984208D003F58063984204D05B
:101F400040F21531174801F0E8FB2046FFF7A2FFE9
:101F5000AB7C1BB1236843F080432360EB7C1BB157
:101F60002B7D43F01003A3652A8A6B7B2046134325
:101F7000EA89134363602B7BD5E90112FFF718FF51
:101F80006B7D1BB1236843F480332360AB7D1BB1B1
:101F9000236843F4004323602B78E36038BD00BF1F
:101FA00000C00040B13F000007B5064B18681B7920
:101FB000009068468DF80430FFF726FE002003B03D
:101FC0005DF804FB0140000007B5084B186801905C
:101FD0000748FEF7B9FF01A8FFF758FC3220FFF7CA
:101FE000D3FC002003B05DF804FB00BF06400000F6
:101FF000006CDC0210B56FF00403A0210A480B4C02
:1020000013F0800F03F1010207D12344272A83F83C
:1020100000131346F4D1002010BD03F00F03043B5E
:10202000034419761346EBE700ED00E000E100E021
:1020300081F0004102E000BF83F0004330B54FEA79
:1020400041044FEA430594EA050F08BF90EA020FE6
:102050001FBF54EA000C55EA020C7FEA645C7FEA79
:10206000655C00F0E2804FEA5454D4EB5555B8BF9C
:102070006D420CDD2C4480EA020281EA030382EA0D
:10208000000083EA010180EA020281EA0303362D9F
:1020900088BF30BD11F0004F4FEA01314FF4801C72
:1020A0004CEA113102D0404261EB410113F0004F84
:1020B0004FEA03334CEA133302D0524263EB43033B
:1020C00094EA050F00F0A780A4F10104D5F1200ED9
:1020D0000DDB02FA0EFC22FA05F2801841F1000134
:1020E00003FA0EF2801843FA05F359410EE0A5F108
:1020F00020050EF1200E012A03FA0EFC28BF4CF039
:10210000020C43FA05F3C01851EBE37101F00045EE
:1021100007D54FF0000EDCF1000C7EEB00006EEBFB
:102120000101B1F5801F1BD3B1F5001F0CD3490885
:102130005FEA30004FEA3C0C04F101044FEA4452DC
:1021400012F5800F80F09A80BCF1004F08BF5FEA63
:10215000500C50F1000041EB045141EA050130BD43
:102160005FEA4C0C404141EB0101013C28BFB1F555
:10217000801FE9D291F0000F04BF01460020B1FAA0
:1021800081F308BF2033A3F10B03B3F120020CDA73
:102190000C3208DD02F1140CC2F10C0201FA0CF051
:1021A00021FA02F10CE002F11402D8BFC2F1200CB6
:1021B00001FA02F120FA0CFCDCBF41EA0C0190406C
:1021C000E41AA2BF01EB0451294330BD6FEA0404B5
:1021D0001F3C1CDA0C340EDC04F11404C4F12002A0
:1021E00020FA04F001FA02F340EA030021FA04F3B2
:1021F00045EA030130BDC4F10C04C4F1200220FA09
:1022000002F001FA04F340EA0300294630BD21FA46
:1022100004F0294630BD94F0000F83F4801306BF0C
:1022200081F480110134013D4EE77FEA645C18BF00
:102230007FEA655C29D094EA050F08BF90EA020F97
:1022400005D054EA000C04BF1946104630BD91EA8F
:10225000030F1EBF0021002030BD5FEA545C05D192
:102260004000494128BF41F0004130BD14F58004D1
:102270003CBF01F5801130BD01F0004545F0FE4145
:1022800041F470014FF0000030BD7FEA645C1ABF7A
:10229000194610467FEA655C1CBF0B46024650EAB1
:1022A000013406BF52EA033591EA030F41F40021DD
:1022B00030BD00BF90F0000F04BF0021704730B563
:1022C0004FF4806404F132044FF000054FF0000138
:1022D00050E700BF90F0000F04BF0021704730B5F9
:1022E0004FF4806404F1320410F0004548BF4042CE
:1022F0004FF000013EE700BF42004FEAE2014FEA23
:1023000031014FEA02701FBF12F07F4393F07F4FFD
:1023100081F06051704732F07F4208BF704793F000
:102320007F4F04BF41F40021704730B54FF4607413
:1023300001F0004521F000411CE700BF50EA010216
:1023400008BF704730B54FF000050AE050EA0102BF
:1023500008BF704730B511F0004502D5404261EB2F
:1023600041014FF4806404F132045FEA915C3FF470
:10237000D8AE4FF003025FEADC0C18BF03325FEA0D
:10238000DC0C18BF033202EBDC02C2F1200300FABE
:1023900003FC20FA02F001FA03FE40EA0E0021FAE3
:1023A00002F11444BDE600BF70B54FF0FF0C4CF4D1
:1023B000E06C1CEA11541DBF1CEA135594EA0C0F83
:1023C00095EA0C0F00F0DEF82C4481EA030621EABE
:1023D0004C5123EA4C5350EA013518BF52EA0335F9
:1023E00041F4801143F4801338D0A0FB02CE4FF0AB
:1023F0000005E1FB02E506F00042E0FB03E54FF0DB
:102400000006E1FB03569CF0000F18BF4EF0010ED2
:10241000A4F1FF04B6F5007F64F5407404D25FEACE
:102420004E0E6D4146EB060642EAC62141EA555181
:102430004FEAC52040EA5E504FEACE2EB4F1FD0CC3
:1024400088BFBCF5E06F1ED8BEF1004F08BF5FEA41
:10245000500E50F1000041EB045170BD06F00046F3
:1024600046EA010140EA020081EA0301B4EB5C04A0
:10247000C2BFD4EB0C0541EA045170BD41F4801198
:102480004FF0000E013C00F3AB8014F1360FDEBFBD
:10249000002001F0004170BDC4F10004203C35DA99
:1024A0000C341BDC04F11404C4F1200500FA05F31C
:1024B00020FA04F001FA05F240EA020001F00042BD
:1024C00021F0004110EBD37021FA04F642EB060133
:1024D0005EEA430E08BF20EAD37070BDC4F10C045D
:1024E000C4F1200500FA04F320FA05F001FA04F221
:1024F00040EA020001F0004110EBD37041F100010D
:102500005EEA430E08BF20EAD37070BDC4F1200517
:1025100000FA05F24EEA020E20FA04F301FA05F27F
:1025200043EA020321FA04F001F0004121FA04F227
:1025300020EA020000EBD3705EEA430E08BF20EAF7
:10254000D37070BD94F0000F0FD101F00046400031
:1025500041EB010111F4801F08BF013CF7D041EAB3
:10256000060195F0000F18BF704703F000465200B7
:1025700043EB030313F4801F08BF013DF7D043EA88
:102580000603704794EA0C0F0CEA135518BF95EA3E
:102590000C0F0CD050EA410618BF52EA4306D1D1C5
:1025A00081EA030101F000414FF0000070BD50EAE4
:1025B000410606BF1046194652EA430619D094EA6E
:1025C0000C0F02D150EA013613D195EA0C0F05D158
:1025D00052EA03361CBF104619460AD181EA0301AC
:1025E00001F0004141F0FE4141F470014FF0000064
:1025F00070BD41F0FE4141F4780170BD70B54FF0FF
:10260000FF0C4CF4E06C1CEA11541DBF1CEA13557E
:1026100094EA0C0F95EA0C0F00F0A7F8A4EB050460
:1026200081EA030E52EA03354FEA013100F0888057
:102630004FEA03334FF0805545EA131343EA126320
:102640004FEA022245EA111545EA10654FEA0026D5
:102650000EF000419D4208BF964244F1FD0404F58E
:10266000407402D25B084FEA3202B61A65EB0305EA
:102670005B084FEA32024FF480104FF4002CB6EBA7
:10268000020E75EB030E22BFB61A754640EA0C0027
:102690005B084FEA3202B6EB020E75EB030E22BF67
:1026A000B61A754640EA5C005B084FEA3202B6EBA8
:1026B000020E75EB030E22BFB61A754640EA9C0067
:1026C0005B084FEA3202B6EB020E75EB030E22BF37
:1026D000B61A754640EADC0055EA060E18D04FEAF5
:1026E000051545EA16754FEA06164FEAC30343EA95
:1026F00052734FEAC2025FEA1C1CC0D111F4801F62
:102700000BD141EA00014FF000004FF0004CB6E75A
:1027100011F4801F04BF01430020B4F1FD0C88BFF9
:10272000BCF5E06F3FF6AFAEB5EB030C04BFB6EB04
:10273000020C5FEA500C50F1000041EB045170BDF7
:102740000EF0004E4EEA113114EB5C04C2BFD4EB24
:102750000C0541EA045170BD41F480114FF0000EA8
:10276000013C90E645EA060E8DE60CEA135594EA24
:102770000C0F08BF95EA0C0F3FF43BAF94EA0C0F27
:102780000AD150EA01347FF434AF95EA0C0F7FF49C
:1027900025AF104619462CE795EA0C0F06D152EAF0
:1027A00003353FF4FDAE1046194622E750EA4106D4
:1027B00018BF52EA43067FF4C5AE50EA41047FF4E5
:1027C0000DAF52EA43057FF4EBAE12E74FEA410248
:1027D00012F5001215D211D56FF47873B3EB625273
:1027E00012D94FEAC12343F0004343EA505311F09A
:1027F000004F23FA02F018BF404270474FF000002C
:10280000704750EA013005D111F0004008BF6FF069
:10281000004070474FF00000704700BF4A0011D2DF
:1028200012F5001211D20DD56FF47873B3EB62522A
:102830000ED44FEAC12343F0004343EA505323FA36
:1028400002F070474FF00000704750EA013002D1AB
:102850004FF0FF3070474FF0000070474FEA4102E1
:10286000B2F1E04324BFB3F5001CDCF1FE5C0DD9EE
:1028700001F0004C4FEAC0024CEA5070B2F1004F38
:1028800040EB830008BF20F00100704711F0804F3B
:1028900021D113F13872BCBF01F00040704741F400
:1028A00080114FEA5252C2F11802C2F1200C10FA04
:1028B0000CF320FA02F018BF40F001004FEAC123E8
:1028C0004FEAD32303FA0CFC40EA0C0023FA02F38C
:1028D0004FEA4303CCE77FEA625307D150EA013362
:1028E0001EBF4FF0FE4040F44000704701F0004032
:1028F00040F0FE4040F40000704700BF80F0004010
:1029000002E000BF81F0004142001FBF5FEA4103C7
:1029100092EA030F7FEA226C7FEA236C6AD04FEAC7
:102920001262D2EB1363C1BFD2184140484041400C
:10293000B8BF5B42192B88BF704710F0004F40F4BE
:10294000000020F07F4018BF404211F0004F41F4DA
:10295000000121F07F4118BF494292EA030F3FD0A6
:10296000A2F1010241FA03FC10EB0C00C3F12003B9
:1029700001FA03F100F0004302D5494260EB400048
:10298000B0F5000F13D3B0F1807F06D340084FEAB3
:10299000310102F10102FE2A51D2B1F1004F40EBA8
:1029A000C25008BF20F0010040EA03007047490010
:1029B00040EB0000013A28BFB0F5000FEDD2B0FAAD
:1029C00080FCACF1080CB2EB0C0200FA0CF0AABFD0
:1029D00000EBC25052421843BCBFD040184370476E
:1029E00092F0000F81F4000106BF80F40000013274
:1029F000013BB5E74FEA41037FEA226C18BF7FEA4B
:102A0000236C21D092EA030F04D092F0000F08BF8C
:102A10000846704790EA010F1CBF0020704712F073
:102A20007F4F04D1400028BF40F00040704712F1B2
:102A300000723CBF00F50000704700F0004343F017
:102A4000FE4040F4000070477FEA226216BF08464D
:102A50007FEA23630146420206BF5FEA412390EA10
:102A6000010F40F4800070474FF0000304E000BF06
:102A700010F0004348BF40425FEA000C08BF7047B7
:102A800043F0964301464FF000001CE050EA01027B
:102A900008BF70474FF000030AE000BF50EA010290
:102AA00008BF704711F0004302D5404261EB41017D
:102AB0005FEA010C02BF84460146002043F0B643A2
:102AC00008BFA3F18053A3F50003BCFA8CF2083AC7
:102AD000A3EBC25310DB01FA02FC634400FA02FCD0
:102AE000C2F12002BCF1004F20FA02F243EB0200D7
:102AF00008BF20F00100704702F1200201FA02FC39
:102B0000C2F1200250EA4C0021FA02F243EB02002B
:102B100008BF20EADC70704708B5064B044613B1C5
:102B20000021AFF30080044B1B6803B19847204697
:102B300000F0F4FD0000000008120020024B0146E6
:102B4000186800F01FB900BF2410002070B50F4EA8
:102B50000C463168054611B900F0D2F830602146C4
:102B6000284600F0CDF8431C03D14FF0FF34204637
:102B700070BDC41C24F00304A042F8D0211A2846DA
:102B800000F0BEF80130F2D1EFE700BFC81000201E
:102B90002DE9F041CD1C25F0030508350C2D38BF7B
:102BA0000C25002D064601DBA94204D90C23336015
:102BB0000020BDE8F081314F00F096F83B681C46DC
:102BC00044BB29463046FFF7C1FF431C044650D1A1
:102BD0003C682146002941D1002C44D0236830466E
:102BE00004EB030800F08CF880453CD121683046A6
:102BF0006D1A2946FFF7AAFF013034D023682B4411
:102C000023603B68002B36D05A68A24229D10022AB
:102C10005A600EE02268521B1DD40B2A16D9611986
:102C2000A342256018BF5960636808BF39606251CC
:102C30004B60304600F05EF804F10B00231D20F0DD
:102C40000700C21AB5D01B1AA350B2E7A3426268AC
:102C5000DED13A60EDE723466468B1E70C46496887
:102C6000B8E71346CEE70C233046336000F042F855
:102C70009EE70560DDE75B60FFDE00BFCC10002053
:102C80000CB430B5174B0C1E1D689DB008DA8B23B1
:102C90004FF0FF302B601DB0BDE8304002B07047F0
:102CA0004FF40273ADF814300CBF234604F1FF3328
:102CB000049307934FF6FF7302900690ADF8163019
:102CC000284621AB209A02A9019300F0A3F8431CE7
:102CD000BCBF8B232B60002CDDD00022029B1A701E
:102CE000D9E700BF24100020014800F066BD00BFF6
:102CF00007150020014800F061BD00BF0715002046
:102D000038B50023054D044608462B60FEF738F918
:102D1000431C02D12B6803B1236038BD0C12002084
:102D200070B500260C4D0D4C641BA410A64209D1B1
:102D300000F086FE00260A4D0A4C641BA410A64231
:102D400005D170BD55F8043B98470136EEE755F8BC
:102D5000043B98470136F2E77C1000207C100020ED
:102D60007C1000208410002010B50446044813464F
:102D700020B10A4602202146AFF3008010BD00BFFB
:102D80000000000038B50546002940D051F8043C49
:102D90000C1F002BB8BFE418FFF7A6FF1C4A1368EE
:102DA00033B9636014602846BDE83840FFF7A2BF1E
:102DB000A34208D9206821188B4201BF19685B68BB
:102DC00009182160EDE71A465B680BB1A342FAD9F6
:102DD00011685018A0420BD120680144501883425A
:102DE0001160E0D118685B68084410605360DAE74E
:102DF00002D90C232B60D6E7206821188B4201BF33
:102E000019685B680918216063605460CBE738BDBE
:102E1000CC1000202DE9F04F98468B8907461B0601
:102E20000D4614469DB010D50B6973B94021FFF7CC
:102E3000AFFE2860286130B90C233B604FF0FF30B3
:102E40001DB0BDE8F08F40236B6100230993202360
:102E50008DF8293030234FF00109CDF80C80DFF8D0
:102E600098818DF82A3023469A4613F8012B0AB12F
:102E7000252AF9D1BAEB040B0BD05B462246294632
:102E8000384600F0A4FC013000F0A780099A5A44AB
:102E900009929AF80030002B00F09F8000234FF039
:102EA000FF32CDE905230AF1010A049307938DF857
:102EB00053301A935446052214F8011B4E4800F073
:102EC0009BFD049AD8B9D00644BF20238DF8533017
:102ED000110744BF2B238DF853309AF800302A2B6A
:102EE00015D0544600204FF00A0C079A214611F8DD
:102EF000013B303B092B4BD9B0B1079214E0A0EB5A
:102F0000080309FA03F31343A2460493D2E7039B91
:102F1000191D1B680391002BBBBF5B4242F00202EC
:102F200007930793B8BF049223782E2B0AD16378B6
:102F30002A2B32D1039B02341A1D1B68039243EAE9
:102F4000E3730593DFF8B4A003225046217800F024
:102F500053FD38B14022049BA0EB0A00824013438A
:102F60000134049314F8011B062225488DF828101B
:102F700000F042FD002836D0224B1BBB039B0733D9
:102F800023F0070308330393099B334409936AE74B
:102F90000C4601200CFB0232A8E700234FF00A0C7C
:102FA000194601340593204610F8012B303A092ABE
:102FB00003D9002BC6D00591C4E7044601230CFBBE
:102FC0000121F0E703AB00932A4638460E4B04A9D3
:102FD000AFF30080421C0646D6D1AB895B063FF5B5
:102FE0002DAF09982CE703AB00932A463846064BD1
:102FF00004A900F00BF8EDE70A40000010400000C3
:103000001440000000000000CF3700002DE9FF470A
:103010000F7E9146782F80460C469A460C9E01F111
:10302000430207D8622F0AD8002F00F0DD80582F06
:1030300000F0C38004F1420684F842703AE0A7F140
:103040006303152BF6D801A151F823F0A530000039
:10305000B930000035300000353000003530000058
:1030600035300000B9300000353000003530000048
:103070003530000035300000CF310000473100000E
:10308000873100003530000035300000F13100009C
:103090003530000047310000353000003530000089
:1030A0008F31000033681A1D1B68326004F142063C
:1030B00084F842300123A8E031682368081D30609D
:1030C0001E0601D50D6803E05D06FBD5B1F9005081
:1030D000002D616878DA2D20002984F84300A16072
:1030E0002DDA0A235D486D421646B5FBF3F103FB6A
:1030F0001157C75D06F8017D2F46BB420D46F4D936
:10310000082B0BD12368DF0708D523696168994232
:10311000DEBF302306F8013C06F1FF36921B226128
:103120004B4621464046CDF800A003AA00F0AAFB7A
:1031300001306FD14FF0FF3004B0BDE8F08723F0CD
:1031400004032360CDE721683368080653F8045B65
:1031500002D4490648BFADB26F2F336014BF0A23B3
:1031600008233E48002184F843106668002EA660BC
:10317000BADB216821F004012160002DB4D1002EBA
:10318000B2D11646BCE7236843F0200323607827BA
:10319000334884F84570236831681F0651F8045B92
:1031A00002D45F0648BFADB23160D90744BF43F0D7
:1031B000200323601DB11023D4E72848E9E72368E2
:1031C00023F020032360F6E70A232448CDE7336881
:1031D0002568181D616930602E061B6801D51960CD
:1031E00002E06806FBD5198000231646236197E7A5
:1031F000336800211A1D32601E686268304600F094
:10320000FBFB08B1801B606063682361002384F8C6
:10321000433085E73246494640462369D04701306E
:1032200088D023689B0714D4E068039B9842B8BFFA
:10323000184681E70123324649464046D0470130CF
:103240003FF478AF0135E36803995B1AAB42F1DCD8
:10325000EAE7002504F11906F5E700BF1B4000006E
:103260002C400000F8B504460D4600F023F8224635
:1032700006460F462B462046294600F097F930B9FE
:10328000204629460022002300F068F910B9304694
:103290003946F8BD00F0FCF800220023212101602E
:1032A00010461946FFF7AAF906460F46304639463A
:1032B000F8BD00BF2DE9F84F724F04468F430D460D
:1032C00000F0B28000290B460646024655DD08157F
:1032D00000F09B80C3F31303C107A0F2FF3743F450
:1032E000801303D4D10F01EB4303520000261624B0
:1032F0004FF40011B4465B0003EBD2737F10520011
:103300000CEB0100834203DB1B1A01EB000C0E44A3
:103310005B00013C03EBD2734FEA51014FEA4202DA
:10332000EED120254FF00040A0460AE039D05900E8
:1033300001EBD271013D0B464FEA42024FEA5000C9
:103340003BD09C4508EB000EF0DABEF1000F0EEB0F
:1033500000080CDBE146A3EB0C01CC46964588BF88
:1033600001F1FF314900A2EB0E020444E0E7B8F19D
:10337000000FEFDB0CF10109EDE721F000470743F7
:103380003DD0002973D1D10A153B52050029FAD04E
:10339000CD02184616460B4637D520244FF0FF3194
:1033A0003EE0964502D94FEA4C01C1E7BEF1000F5D
:1033B0000EEB000825DB0021D5E7114312D0DFF822
:1033C000C8A0DFF8C8B0DAE90001DBE90023FEF7A6
:1033D00033FEDAE9008902460B464046494600F0D2
:1033E000C7F858BB6508F20748BF45F000452846B6
:1033F000731003F17F5303F5001303EB0751BDE88E
:10340000F88FB8F1000FB5DAD5E700225B00DC02D7
:10341000114602F10102F9D5C2F1200406FA02F2C6
:10342000E640401A334355E702460B46FEF7BCFF21
:1034300022462B46FEF702FEBDE8F88FB4F1FF3FAF
:10344000DAE90001DBE9002318D0DAE90089FEF7A8
:10345000F5FD02460B464046494600F07FF878B13C
:10346000A11C04F1020508BF01366D08BBE7FEF799
:10347000E3FD02460B46FFF7C1F8C0E70136B2E7AD
:103480000134AFE70000F07F08100020001000209A
:10349000014B1868704700BF241000204FF0FF3C1C
:1034A00006E000BF4FF0010C02E000BF4FF0010C3E
:1034B0004DF804CD4FEA410C7FEA6C5C4FEA430CB7
:1034C00018BF7FEA6C5C1BD001B050EA410C0CBF06
:1034D00052EA430C91EA030F02BF90EA020F002068
:1034E000704710F1000F91EA030F58BF994208BFCF
:1034F00090422CBFD8176FEAE37040F0010070478C
:103500004FEA410C7FEA6C5C02D150EA013C07D1E2
:103510004FEA430C7FEA6C5CD6D152EA033CD3D02D
:103520005DF8040B704700BF8446104662468C4627
:103530001946634600E000BF01B5FFF7B7FF00285A
:1035400048BF10F1000F01BD4DF808EDFFF7F4FF83
:103550000CBF012000205DF808FB00BF4DF808ED0E
:10356000FFF7EAFF34BF012000205DF808FB00BF31
:103570004DF808EDFFF7E0FF94BF012000205DF853
:1035800008FB00BF4DF808EDFFF7CEFF94BF012008
:1035900000205DF808FB00BF4DF808EDFFF7C4FF01
:1035A00034BF012000205DF808FB00BF4FEA410C4A
:1035B0007FEA6C5C02D150EA013C0AD14FEA430C2D
:1035C0007FEA6C5C02D152EA033C02D14FF000006A
:1035D00070474FF001007047704710B5044600F087
:1035E000E2F8204610BD10B501230422002103207B
:1035F000FEF75EFB012303201A461946FEF758FB2F
:103600000123042202210320FEF752FBBDE81040F3
:103610000321012304220846FEF74ABB43681A69C6
:103620005006FCD559631A699206FCD5D869C0B218
:10363000704710B52D210446FCF748FE40F0080203
:103640002D212046BDE81040D2B2FCF72DBE10B5AA
:103650000446FCF7D1FD2046FFF7C5FF2046FCF7E6
:10366000E1FD2046FFF7E5FF012010BD08B5002170
:10367000FCF72CFEA0F1E5035842584108BD38B5CF
:1036800032210546FCF722FE332104462846FCF78A
:103690001DFE44EA002000B238BD38B5342105468D
:1036A000FCF714FE352104462846FCF70FFE44EAD9
:1036B000002000B238BD38B536210546FCF706FEBD
:1036C000372104462846FCF701FE44EA002000B2F8
:1036D00038BD704710B5044600F065F8204610BDAF
:1036E00008B500F043F8FCF7D9FE00F04CF8FCF701
:1036F00087FFFAE77047704700F006B870477047D9
:1037000070477047704770470F207047FEE74FF4CF
:10371000004070474FF47A707047FEE7FEE7EFF322
:10372000108072B6704700B962B6704770B5054632
:1037300014460E46FFF7F3FF2B685C4034405C40B4
:103740002C60BDE87040FFF7EEBF13B54FF4407337
:10375000002401A8ADF804308DF80640FEF7D6F835
:103760003220FEF70BF9204602B010BD08B5FDF778
:10377000F7FAFFF7C0FFFFF7BFFFFFF7BFFFBDE896
:103780000840FFF7BCBF08B5FFF7BAFFFFF7B9FF66
:10379000FFF7B8FFBDE80840FFF7B5BF0B4601468D
:1037A0001846FFF7E1BAFFF7C9B90346024493424E
:1037B00000D1704703F8011BF9E7704770470346D3
:1037C00013F8012B002AFBD1181A013870472DE994
:1037D000F0471F468E688246BE420C4690460B68F4
:1037E0002DD8B1F90C2012F4906F26D065690969C3
:1037F00005EB4505A3EB010905EBD5757B1C4B4497
:103800006D109D4238BF1D46530527D52946FFF749
:10381000BFF9064660B34A46216900F0FBF8A38968
:1038200023F4906343F08003A38126614E44266015
:103830003E466561A5EB0905A560BE4200D93E463E
:1038400032464146206800F0BDF80020A3689B1B6B
:10385000A360236833442360BDE8F0872A4600F064
:1038600083F806460028E0D150462169FFF78AFA1E
:103870000C23CAF80030A3894FF0FF3043F0400317
:10388000A381E9E72DE9F047164698468A680B6957
:1038900007469342B8BF1346336091F843200C4665
:1038A000DDF820900AB1013333602368990642BFE6
:1038B000336802333360256815F0060506D104F13C
:1038C000190AE36832689B1AAB422BDC94F8433048
:1038D0002268003B18BF0123920630D44146384687
:1038E00004F14302C847013023D02368226903F062
:1038F0000603042B14BF002533684FF0000608BFF1
:10390000E56804F11A0408BFED1A54F8123C08BF28
:1039100025EAE5759342C4BF9B1AED18B5421AD14A
:10392000002008E00123524641463846C84701308E
:1039300003D14FF0FF30BDE8F0870135C1E73020FB
:10394000E11881F843005A1C94F8451022440233D0
:1039500082F84310C2E70123224641463846C84751
:103960000130E6D00136D9E72DE9F0418046154611
:103970000C4621B91146BDE8F041FFF709B92AB953
:10398000FFF700FA00242046BDE8F08100F050F86F
:103990008542064602D8B5EB500FF4D8294640467A
:1039A000FFF7F6F807460028ECD0B5422A46214634
:1039B00028BF324600F02EF821464046FFF7E2F9D4
:1039C0003C46E0E7884210B501EB020402D984428C
:1039D000234607D8431EA14208D011F8012B03F853
:1039E000012FF8E7014602448A4200D110BD13F8C6
:1039F000014D02F8014DF7E7034610B5C9B2024484
:103A00009342184601D1002003E0047801338C4230
:103A1000F6D110BD0A44914200F1FF3300D1704746
:103A200010B511F8014B914203F8014FF9D110BDC7
:103A300051F8043C181F002BBCBF0B58C01870472E
:103A4000F8B500BFF8BC08BC9E467047F8B500BF8B
:103A5000F8BC08BC9E467047000000000000000053
:103A60000000000000000000000000000000000056
:103A70000000000000000000000000000000000046
:103A80000000000000000000D9350000DB35000018
:103A90000000000000000000D3360000D536000012
:103AA0004F4646004641494C0053545245414D0053
:103AB00025642C25642C25642C252E32660D0A00E5
:103AC000050000000000000000C201000005000029
:103AD00000100000000000002F55736572732F6AFC
:103AE000666F72737974682F53696D706C6963695E
:103AF000747953747564696F2F53444B732F6765E2
:103B0000636B6F5F73646B5F322F2F706C617466D1
:103B10006F726D2F656D6C69622F696E632F656DB5
:103B20005F6275732E68002E2E2F656D5F6C636467
:103B30002E63000001000000030040000C000000A4
:103B400000000000000000000000001180020000E2
:103B5000000002060000200039000F0000004015A0
:103B600000204004001000223F0006005B044F04C8
:103B700066046D047D0407007F046F0400000000EC
:103B8000000A000080200000FFFF7704790A390056
:103B9000B020790071007D04760406000E00700AE2
:103BA0003800B602B6083F0073043F08730C6D047A
:103BB00001113E0030223628802A6E040922390085
:103BC00080080F0001000800000158107C04580014
:103BD0005E04582071040C0C740404000E00700C78
:103BE0003800541454045C04730467045004080C33
:103BF00078001C0010201428802A0C08482000009F
:103C000001010507070304020302040605060D0E61
:103C10000E0E0D0D0D0D0E0E0E0E0D0D01010507F4
:103C2000070304020302040605060F1010100F0F0D
:103C30000F0F101010100F0F0101050707030402EA
:103C400003020406050611121212111111111212AB
:103C500012121111010105070703040203020406F1
:103C60000506131C1C1C131313131C1C1C1C131300
:103C700000010507060203010302040604051D1ED8
:103C80001E1E1D1D1D1D1E1E1E1E1D1D00010507C5
:103C9000060203010302040604051F2020201F1F43
:103CA0001F1F202020201F1F0101050707030402FA
:103CB000030204060506212222222121212122229B
:103CC00022222121070502010306042323232323A3
:103CD0002323070502010306042424242424242486
:103CE00007050201030604252525252525250705A9
:103CF00002010306042626262626262600010702A0
:103D000006272727272700000000000000001312C5
:103D100011100F0E0D0C00000000212524260101BA
:103D20000304040203020D0E0D0D0E0D0E0E010113
:103D30000304040203020F100F0F100F10100101F3
:103D400003040402030211121111121112120101D3
:103D5000030404020302131C13131C131C1C000194
:103D60000203040103021D1E1D1D1E1D1E1E000157
:103D70000203040103021F201F1F201F2020010136
:103D80000304040203022122212122212222050709
:103D90000704040605060E0E0D0D0E0E0D0D05078B
:103DA00007040406050610100F0F10100F0F05076B
:103DB000070404060506121211111212111105074B
:103DC0000704040605061C1C13131C1C131305070B
:103DD0000603040604051E1E1D1D1E1E1D1D0507CF
:103DE00006030406040520201F1F20201F1F0507AF
:103DF00007040406050622222121222221212F5513
:103E0000736572732F6A666F72737974682F536962
:103E10006D706C696369747953747564696F2F533D
:103E2000444B732F6765636B6F5F73646B5F322FF7
:103E30002F706C6174666F726D2F656D6C69622F87
:103E4000696E632F656D5F636D752E68002F557306
:103E50006572732F6A666F72737974682F53696D18
:103E6000706C696369747953747564696F2F534416
:103E70004B732F6765636B6F5F73646B5F322F707B
:103E80006C6174666F726D2F656D6C69622F7372F1
:103E9000632F656D5F636D752E6300000002800007
:103EA0000800020020000001400004000100100092
:103EB00009070301052F55736572732F6A666F72C8
:103EC000737974682F53696D706C69636974795381
:103ED000747564696F2F53444B732F6765636B6F01
:103EE0005F73646B5F322F2F706C6174666F726DDD
:103EF0002F656D6C69622F696E632F656D5F6770EA
:103F0000696F2E68002F55736572732F6A666F7222
:103F1000737974682F53696D706C69636974795330
:103F2000747564696F2F53444B732F6765636B6FB0
:103F30005F73646B5F322F706C6174666F726D2F8C
:103F4000656D6C69622F7372632F656D5F67706951
:103F50006F2E6300FFFFFFFFFFFFFFFFFFFFFF1F4D
:103F60002F55736572732F6A666F72737974682F39
:103F700053696D706C696369747953747564696FA2
:103F80002F53444B732F6765636B6F5F73646B5F75
:103F9000322F706C6174666F726D2F656D6C696223
:103FA0002F7372632F656D5F73797374656D2E6304
:103FB000002F55736572732F6A666F727379746818
:103FC0002F53696D706C6963697479537475646992
:103FD0006F2F53444B732F6765636B6F5F73646B15
:103FE0005F322F706C6174666F726D2F656D6C69D6
:103FF000622F7372632F656D5F75736172742E63C8
:1040000000000000010103030000232D302B2000DD
:10401000686C4C0065666745464700303132333482
:104020003536373839414243444546003031323322
:1040300034353637383961626364656600000000E4
:0840400028C1FF7F0100000010
:0C40480054400000001000202200000086
:1040540059F3F8C21F6EA501000000000000F03FF4
:1040640000000000809FD50000800000006CDC028E
:10407400081500202810002000000000D0100020A7
:1040840038110020A01100200000000000000000F2
:10409400000000000000000000000000000000001C
:1040A400000000000000000000000000000000000C
:1040B40000000000000000000000000000000000FC
:1040C40000000000FFFFFFFF0100000045010000A9
:0840D400F10600001D010000CF
:0400000300000DEDFF
:00000001FF
